{
  "_format": "hh-sol-artifact-1",
  "contractName": "TodoList",
  "sourceName": "contracts/TodoList.sol",
  "abi": [
    {
      "inputs": [],
      "stateMutability": "nonpayable",
      "type": "constructor"
    },
    {
      "anonymous": false,
      "inputs": [
        {
          "indexed": false,
          "internalType": "uint256",
          "name": "id",
          "type": "uint256"
        },
        {
          "indexed": false,
          "internalType": "string",
          "name": "content",
          "type": "string"
        }
      ],
      "name": "Created",
      "type": "event"
    },
    {
      "anonymous": false,
      "inputs": [
        {
          "indexed": false,
          "internalType": "uint256",
          "name": "id",
          "type": "uint256"
        },
        {
          "indexed": false,
          "internalType": "bool",
          "name": "completed",
          "type": "bool"
        }
      ],
      "name": "UpdateIsCompleted",
      "type": "event"
    },
    {
      "inputs": [
        {
          "internalType": "string",
          "name": "_content",
          "type": "string"
        }
      ],
      "name": "createTask",
      "outputs": [],
      "stateMutability": "nonpayable",
      "type": "function"
    },
    {
      "inputs": [],
      "name": "taskCount",
      "outputs": [
        {
          "internalType": "uint256",
          "name": "",
          "type": "uint256"
        }
      ],
      "stateMutability": "view",
      "type": "function"
    },
    {
      "inputs": [
        {
          "internalType": "uint256",
          "name": "",
          "type": "uint256"
        }
      ],
      "name": "tasks",
      "outputs": [
        {
          "internalType": "string",
          "name": "content",
          "type": "string"
        },
        {
          "internalType": "bool",
          "name": "isCompleted",
          "type": "bool"
        }
      ],
      "stateMutability": "view",
      "type": "function"
    },
    {
      "inputs": [
        {
          "internalType": "uint256",
          "name": "_id",
          "type": "uint256"
        }
      ],
      "name": "toggleIsCompleted",
      "outputs": [],
      "stateMutability": "nonpayable",
      "type": "function"
    }
  ],
  "bytecode": "0x6080604052600080553480156200001557600080fd5b506200005c6040518060400160405280600c81526020017f496e697469616c204461746100000000000000000000000000000000000000008152506200006260201b60201c565b620003ae565b6000808154809291906200007690620002f1565b919050555060405180604001604052808281526020016000151581525060016000805481526020019081526020016000206000820151816000019080519060200190620000c592919062000129565b5060208201518160010160006101000a81548160ff0219169083151502179055509050507f8304eea71399999aba5c87c24c7fbc7cb6fce2f02b9b5983fda2636b86df8d0a600054826040516200011e9291906200022b565b60405180910390a150565b8280546200013790620002bb565b90600052602060002090601f0160209004810192826200015b5760008555620001a7565b82601f106200017657805160ff1916838001178555620001a7565b82800160010185558215620001a7579182015b82811115620001a657825182559160200191906001019062000189565b5b509050620001b69190620001ba565b5090565b5b80821115620001d5576000816000905550600101620001bb565b5090565b6000620001e6826200025f565b620001f281856200026a565b93506200020481856020860162000285565b6200020f816200039d565b840191505092915050565b62000225816200027b565b82525050565b60006040820190506200024260008301856200021a565b8181036020830152620002568184620001d9565b90509392505050565b600081519050919050565b600082825260208201905092915050565b6000819050919050565b60005b83811015620002a557808201518184015260208101905062000288565b83811115620002b5576000848401525b50505050565b60006002820490506001821680620002d457607f821691505b60208210811415620002eb57620002ea6200036e565b5b50919050565b6000620002fe826200027b565b91507fffffffffffffffffffffffffffffffffffffffffffffffffffffffffffffffff8214156200033457620003336200033f565b5b600182019050919050565b7f4e487b7100000000000000000000000000000000000000000000000000000000600052601160045260246000fd5b7f4e487b7100000000000000000000000000000000000000000000000000000000600052602260045260246000fd5b6000601f19601f8301169050919050565b6108b780620003be6000396000f3fe608060405234801561001057600080fd5b506004361061004c5760003560e01c8063111002aa146100515780638d9776721461006d578063b6cb58a51461009e578063bc9639b2146100bc575b600080fd5b61006b600480360381019061006691906104f1565b6100d8565b005b61008760048036038101906100829190610532565b610199565b6040516100959291906105b2565b60405180910390f35b6100a6610252565b6040516100b391906105e2565b60405180910390f35b6100d660048036038101906100d19190610532565b610258565b005b6000808154809291906100ea90610783565b9190505550604051806040016040528082815260200160001515815250600160008054815260200190815260200160002060008201518160000190805190602001906101379291906103d1565b5060208201518160010160006101000a81548160ff0219169083151502179055509050507f8304eea71399999aba5c87c24c7fbc7cb6fce2f02b9b5983fda2636b86df8d0a6000548260405161018e929190610626565b60405180910390a150565b60016020528060005260406000206000915090508060000180546101bc90610720565b80601f01602080910402602001604051908101604052809291908181526020018280546101e890610720565b80156102355780601f1061020a57610100808354040283529160200191610235565b820191906000526020600020905b81548152906001019060200180831161021857829003601f168201915b5050505050908060010160009054906101000a900460ff16905082565b60005481565b60006001600083815260200190815260200160002060405180604001604052908160008201805461028890610720565b80601f01602080910402602001604051908101604052809291908181526020018280546102b490610720565b80156103015780601f106102d657610100808354040283529160200191610301565b820191906000526020600020905b8154815290600101906020018083116102e457829003601f168201915b505050505081526020016001820160009054906101000a900460ff16151515158152505090508060200151158160200190151590811515815250508060016000848152602001908152602001600020600082015181600001908051906020019061036c9291906103d1565b5060208201518160010160006101000a81548160ff0219169083151502179055509050507f01d9ba3e72a1f5f08aa0aa326ff2ff44d2db29def801ad52d050fb5ea06d4c848282602001516040516103c59291906105fd565b60405180910390a15050565b8280546103dd90610720565b90600052602060002090601f0160209004810192826103ff5760008555610446565b82601f1061041857805160ff1916838001178555610446565b82800160010185558215610446579182015b8281111561044557825182559160200191906001019061042a565b5b5090506104539190610457565b5090565b5b80821115610470576000816000905550600101610458565b5090565b60006104876104828461067b565b610656565b90508281526020810184848401111561049f57600080fd5b6104aa8482856106de565b509392505050565b600082601f8301126104c357600080fd5b81356104d3848260208601610474565b91505092915050565b6000813590506104eb8161086a565b92915050565b60006020828403121561050357600080fd5b600082013567ffffffffffffffff81111561051d57600080fd5b610529848285016104b2565b91505092915050565b60006020828403121561054457600080fd5b6000610552848285016104dc565b91505092915050565b610564816106c8565b82525050565b6000610575826106ac565b61057f81856106b7565b935061058f8185602086016106ed565b61059881610859565b840191505092915050565b6105ac816106d4565b82525050565b600060408201905081810360008301526105cc818561056a565b90506105db602083018461055b565b9392505050565b60006020820190506105f760008301846105a3565b92915050565b600060408201905061061260008301856105a3565b61061f602083018461055b565b9392505050565b600060408201905061063b60008301856105a3565b818103602083015261064d818461056a565b90509392505050565b6000610660610671565b905061066c8282610752565b919050565b6000604051905090565b600067ffffffffffffffff8211156106965761069561082a565b5b61069f82610859565b9050602081019050919050565b600081519050919050565b600082825260208201905092915050565b60008115159050919050565b6000819050919050565b82818337600083830152505050565b60005b8381101561070b5780820151818401526020810190506106f0565b8381111561071a576000848401525b50505050565b6000600282049050600182168061073857607f821691505b6020821081141561074c5761074b6107fb565b5b50919050565b61075b82610859565b810181811067ffffffffffffffff8211171561077a5761077961082a565b5b80604052505050565b600061078e826106d4565b91507fffffffffffffffffffffffffffffffffffffffffffffffffffffffffffffffff8214156107c1576107c06107cc565b5b600182019050919050565b7f4e487b7100000000000000000000000000000000000000000000000000000000600052601160045260246000fd5b7f4e487b7100000000000000000000000000000000000000000000000000000000600052602260045260246000fd5b7f4e487b7100000000000000000000000000000000000000000000000000000000600052604160045260246000fd5b6000601f19601f8301169050919050565b610873816106d4565b811461087e57600080fd5b5056fea2646970667358221220d16f6ac9039d29d0a0cf45dff2f6186a8088da536bf354eee025fc2eb31ad48164736f6c63430008040033",
  "linkReferences": {},
  "deployedLinkReferences": {}
}